:100000000C942A000C9447000C9447000C94470071
:100010000C941D2A0C94EA290C9485280C94B82879
:100020000C94EB280C941E290C9421270C94EE269A
:100030000C9447000C9447000C9447000C94470024
:100040000C9447000C9447000C9447000C94470014
:100050000C94470011241FBECFE5D8E0DEBFCDBF12
:1000600011E0A0E6B0E0EEE0F9E502C005900D92E7
:10007000A039B107D9F711E0A0E9B1E001C01D92A4
:10008000A43AB107E1F70E94C42B0C94852C0C9480
:100090000000EF92FF920F931F937B018C0120E0F1
:1000A00030E040E05FE40E94F50388238CF0C80153
:1000B000B70120E030E040E05FE40E94C1010E940F
:1000C000B3049B01AC01205030404040504806C072
:1000D000C801B7010E94B3049B01AC01B901CA0178
:1000E0001F910F91FF90EF900895A0E0B0E0EBE733
:1000F000F0E00C944E2CDC012B01FA019C91923023
:1001000008F439C1EB018881823008F433C194309E
:1001100069F4843009F02FC111969C91119789815F
:10012000981709F428C1A0E7B0E025C1843009F48C
:1001300021C18230A9F4923009F01DC19A01AD01AC
:1001400088E0EA010990AE01E90109929E0181501F
:10015000C1F7E201898111969C918923818308C1AD
:10016000923009F407C112962D903C901397EB0141
:100170008A819B811496AD90BD90CD90DC901797AD
:10018000EC80FD800E811F819101281B390BB90184
:1001900037FF04C066277727621B730B6032710537
:1001A0000CF061C0121613066CF537014801062EDB
:1001B00004C096948794779467940A94D2F721E0C8
:1001C00030E040E050E004C0220F331F441F551FB1
:1001D0006A95D2F721503040404050402E213F21B7
:1001E00040235123211531054105510521F021E01E
:1001F00030E040E050E079018A01E628F72808293C
:1002000019293CC0232BD1F1260E371E350146019A
:10021000062E04C096948794779467940A94D2F734
:1002200021E030E040E050E004C0220F331F441FC3
:10023000551F6A95D2F721503040404050402A2146
:100240003B214C215D21211531054105510521F04E
:1002500021E030E040E050E059016A01A628B728CB
:10026000C828D9280BC0821593052CF01C01AA249C
:10027000BB24650103C0EE24FF24870111969C91E5
:10028000D20111968C91981709F445C0992339F041
:10029000A80197012A193B094C095D0906C0A6016E
:1002A00095012E193F09400B510B57FD08C01182D3
:1002B0003382228224833583468357831DC081E0A5
:1002C00081833382228288279927DC01821B930B4A
:1002D000A40BB50B84839583A683B7830DC0220F2F
:1002E000331F441F551F24833583468357838281E0
:1002F000938101979383828324813581468157813D
:10030000DA01C9010197A109B1098F5F9F4FAF4F72
:10031000BF4328F30BC0918333822282EA0CFB1C7B
:100320000C1D1D1DE482F5820683178383E0808304
:10033000248135814681578157FF1AC0C901AA27F8
:1003400097FDA095BA2F81709070A070B0705695EF
:10035000479537952795822B932BA42BB52B848318
:100360009583A683B7838281938101969383828349
:10037000DF0101C0D201CD01CDB7DEB7E2E10C94BF
:100380006A2CA0E2B0E0E7ECF1E00C945A2C69830F
:100390007A838B839C832D833E834F835887E9E048
:1003A000EE2EF12CEC0EFD1ECE010196B7010E943F
:1003B000A4068E010F5E1F4FCE010596B8010E9464
:1003C000A4068A8991E089278A8BC701B801AE010A
:1003D000475E5F4F0E9475000E94CF05A096E6E041
:1003E0000C94762CA0E2B0E0E8EFF1E00C945A2CEB
:1003F00069837A838B839C832D833E834F835887C5
:10040000F9E0EF2EF12CEC0EFD1ECE010196B701A6
:100410000E94A4068E010F5E1F4FCE010596B80103
:100420000E94A406C701B801AE01475E5F4F0E945B
:1004300075000E94CF05A096E6E00C94762CA0E211
:10044000B0E0E5E2F2E00C944E2C69837A838B8372
:100450009C832D833E834F835887CE010196BE0136
:10046000675F7F4F0E94A406CE010596BE016F5EB6
:100470007F4F0E94A4069985923088F08989823046
:10048000C8F0943019F4823051F404C0843029F457
:10049000923081F480E790E0C6C0923049F420E0C9
:1004A0009A858A89981321E02A87CE010996BBC0D4
:1004B000823049F420E09A858A89981321E02A8BBA
:1004C000CE014196B0C02D843E844F8458886D88FB
:1004D0007E888F88988CEE24FF248701AA24BB2471
:1004E000650140E050E060E070E0E0E0F0E0C10174
:1004F00081709070892BE9F0E60CF71C081D191D1E
:100500009A01AB012A0D3B1D4C1D5D1D80E090E062
:10051000A0E0B0E0E614F7040805190520F481E036
:1005200090E0A0E0B0E0BA01A901480F591F6A1F8E
:100530007B1FAA0CBB1CCC1CDD1C97FE08C081E0F5
:1005400090E0A0E0B0E0A82AB92ACA2ADB2A3196B6
:10055000E032F10549F0660C771C881C991C569412
:10056000479437942794C3CFFA85EA892B893C892D
:100570008B859C85280F391F2E5F3F4F17C0CA01FE
:1005800081709070892B61F016950795F794E79428
:1005900080E090E0A0E0B0E8E82AF92A0A2B1B2BC3
:1005A00076956795579547952F5F3F4F77FDE7CF36
:1005B0000CC0440F551F661F771F17FD4160EE0CDE
:1005C000FF1C001F111F21503040403090E05907A0
:1005D00090E0690790E4790760F32B8F3C8FDB0193
:1005E000CA018F779070A070B07080349105A1051A
:1005F000B10561F447FD0AC0E114F10401051105DC
:1006000029F0405C5F4F6F4F7F4F40781A8EFE1786
:1006100011F081E08A8F4D8F5E8F6F8F78A383E01A
:10062000898FCE0149960E94CF05A096E2E10C94F5
:100630006A2CA8E1B0E0EFE1F3E00C94562C69835A
:100640007A838B839C832D833E834F835887B9E0C5
:10065000EB2EF12CEC0EFD1ECE010196B7010E948F
:10066000A4068E010F5E1F4FCE010596B8010E94B1
:10067000A4062985223008F47EC03989323010F46E
:10068000B8017CC08A859A8989278A87243011F02D
:10069000223031F4231709F06EC060E770E06EC0BD
:1006A000343039F41D861E861F86188A1C861B86E8
:1006B00004C0323021F484E08987B7015FC02B8504
:1006C0003C858B899C89281B390B3C872B87ED84C3
:1006D000FE840F851889AD88BE88CF88D88CEA142F
:1006E000FB040C051D0540F4EE0CFF1C001F111F40
:1006F000215030403C872B8720E030E040E050E044
:1007000080E090E0A0E0B0E460E070E0EA14FB0478
:100710000C051D0540F0282B392B4A2B5B2BEA18C2
:10072000FB080C091D09B695A79597958795EE0CC2
:10073000FF1C001F111F6F5F7F4F6F31710531F775
:10074000DA01C9018F779070A070B0708034910584
:10075000A105B10561F427FD0AC0E114F10401050A
:10076000110529F0205C3F4F4F4F5F4F20782D87B8
:100770003E874F87588BBE01675F7F4FCB010E943A
:10078000CF056896EAE00C94722CA8E1B0E0EBEC9F
:10079000F3E00C945A2C69837A838B839C832D839A
:1007A0003E834F83588789E0E82EF12CEC0EFD1E26
:1007B000CE010196B7010E94A4068E010F5E1F4F65
:1007C000CE010596B8010E94A4068985823040F0CA
:1007D0008989823028F0C701B8010E941C0701C036
:1007E0008FEF6896E6E00C94762CA8E1B0E0EBEF92
:1007F000F3E00C945A2C69837A838B839C832D833A
:100800003E834F83588789E0E82EF12CEC0EFD1EC5
:10081000CE010196B7010E94A4068E010F5E1F4F04
:10082000CE010596B8010E94A4068985823040F069
:100830008989823028F0C701B8010E941C0701C0D5
:100840008FEF6896E6E00C94762CA8E1B0E0EBE23E
:10085000F4E00C945A2C69837A838B839C832D83D8
:100860003E834F83588789E0E82EF12CEC0EFD1E65
:10087000CE010196B7010E94A4068E010F5E1F4FA4
:10088000CE010596B8010E94A4068985823040F009
:100890008989823028F0C701B8010E941C0701C075
:1008A00081E06896E6E00C94762CA8E0B0E0EBE5F9
:1008B000F4E00C94572C9B01AC0183E08983DA01AE
:1008C000C9018827B7FD83959927AA27BB27B82E8A
:1008D000211531054105510519F482E089833AC09B
:1008E0008823A9F0203080E0380780E0480780E8BE
:1008F000580729F460E070E080E09FEC30C0EE24FF
:10090000FF248701E21AF30A040B150B02C07901D8
:100910008A018EE1C82ED12CDC82CB82ED82FE8250
:100920000F831887C801B7010E9480050197181628
:10093000190684F4082E04C0EE0CFF1C001F111FC2
:100940000A94D2F7ED82FE820F831887C81AD90A5B
:10095000DC82CB82BA82CE0101960E94CF05289616
:10096000E9E00C94732CACE0B0E0E9EBF4E00C941B
:100970005E2C69837A838B839C83CE010196BE01B2
:100980006B5F7F4F0E94A4068D81823061F18230BF
:1009900050F1843021F48E81882351F12EC02F81B3
:1009A000388537FD20C06E812F3131051CF066235C
:1009B000F9F023C08EE190E0821B930B29853A85E4
:1009C0004B855C8504C056954795379527958A9544
:1009D000D2F76623B1F050954095309521953F4F61
:1009E0004F4F5F4F0EC020E030E040E050E009C0C4
:1009F0002FEF3FEF4FEF5FE704C020E030E040E033
:100A000050E8B901CA012C96E2E00C947A2CA8E0D7
:100A1000B0E0EDE0F5E00C94562C7B018C01611503
:100A200071058105910519F482E0898360C083E036
:100A300089838EE1C82ED12CDC82CB82ED82FE82AE
:100A40000F831887C801B7010E948005FC01319708
:100A5000F7FF3BC0222733272E1B3F0B57016801AE
:100A6000022E04C0D694C794B794A7940A94D2F7E0
:100A700040E050E060E070E081E090E0A0E0B0E0B5
:100A800004C0880F991FAA1FBB1F2A95D2F7019790
:100A9000A109B1098E219F21A023B1230097A105AF
:100AA000B10521F041E050E060E070E04A295B29A7
:100AB0006C297D294D835E836F8378878EE190E07A
:100AC0008E1B9F0B9C838B8312C0309781F00E2E60
:100AD00004C0EE0CFF1C001F111F0A94D2F7ED8218
:100AE000FE820F831887CE1ADF0ADC82CB821A823D
:100AF000CE0101960E94CF052896EAE00C94722C54
:100B0000EF92FF920F931F937B018C0180E0E81618
:100B100080E0F80681E0080780E0180788F48FEF8E
:100B2000E816F1040105110531F028F088E090E0A5
:100B3000A0E0B0E017C080E090E0A0E0B0E012C01C
:100B400080E0E81680E0F80680E0080781E01807FA
:100B500028F088E190E0A0E0B0E004C080E190E0FF
:100B6000A0E0B0E020E230E040E050E0281B390B8C
:100B70004A0B5B0B04C016950795F794E7948A958A
:100B8000D2F7F701E858FF4F8081281B310941094E
:100B90005109C9011F910F91FF90EF900895DF92C5
:100BA000EF92FF920F931F93FC01E480F580068182
:100BB0001781D1808081823048F480E090E0A0E10C
:100BC000B0E0E82AF92A0A2B1B2BA5C0843009F4CF
:100BD0009FC0823021F4EE24FF24870105C0E11478
:100BE000F1040105110519F4E0E0F0E096C062811E
:100BF00073819FEF623879070CF05BC022E83FEF0A
:100C0000261B370B2A3131052CF020E030E040E084
:100C100050E02AC0B801A701022E04C0769567955E
:100C2000579547950A94D2F781E090E0A0E0B0E0B4
:100C300004C0880F991FAA1FBB1F2A95D2F70197DE
:100C4000A109B1098E219F21A023B1230097A105FD
:100C5000B10521F081E090E0A0E0B0E09A01AB01A5
:100C6000282B392B4A2B5B2BDA01C9018F77907027
:100C7000A070B07080349105A105B10539F427FF4B
:100C800009C0205C3F4F4F4F5F4F04C0215C3F4F76
:100C90004F4F5F4FE0E0F0E02030A0E03A07A0E0E7
:100CA0004A07A0E45A0710F0E1E0F0E079018A0178
:100CB00027C06038710564F5FB01E158FF4FD8018A
:100CC000C7018F779070A070B07080349105A10536
:100CD000B10539F4E7FE0DC080E490E0A0E0B0E09B
:100CE00004C08FE390E0A0E0B0E0E80EF91E0A1F18
:100CF0001B1F17FF05C016950795F794E7943196CB
:100D000087E016950795F794E7948A95D1F705C083
:100D1000EE24FF248701EFEFF0E06E2F6795662742
:100D20006795902F9F77D794DD24D7948E2F869543
:100D3000492F462B582F5D29B701CA011F910F91EA
:100D4000FF90EF90DF900895FC01DB01408151811D
:100D50002281622F6F7770E0221F2227221F93814A
:100D6000892F880F822B282F30E0991F9927991FF0
:100D700011969C93119721153105A9F5411551053F
:100D80006105710511F482E037C082E89FEF139688
:100D90009C938E9312979A01AB0167E0220F331F49
:100DA000441F551F6A95D1F783E08C930DC0220F25
:100DB000331F441F551F12968D919C9113970197D5
:100DC00013969C938E931297203080E0380780E032
:100DD000480780E4580758F314962D933D934D939C
:100DE0005C93179708952F3F310579F4411551050C
:100DF0006105710519F484E08C93089564FF03C0C4
:100E000081E08C9312C01C9210C02F573040139673
:100E10003C932E93129783E08C9387E0440F551FE9
:100E2000661F771F8A95D1F7706414964D935D9372
:100E30006D937C93179708951F93DC01FB019C91A0
:100E4000923008F447C08081823008F443C0943067
:100E500051F411961C91843099F58181682F70E0CE
:100E6000611B71093FC0843021F0923031F482302F
:100E7000B9F18181882389F12DC011961C911197B8
:100E80008230F1F081811817D9F412962D913C919E
:100E90001397828193818217930794F0281739075B
:100EA000BCF014968D919D910D90BC91A02D248144
:100EB000358146815781281739074A075B0718F49F
:100EC000112341F00AC082179307A407B50740F425
:100ED000112319F061E070E005C06FEF7FEF02C0F1
:100EE00060E070E0CB011F910895DF93CF9300D0B5
:100EF000CDB7DEB789836A838981882F90E0880F18
:100F0000991FFC01E058FE4F0190F081E02D8A818D
:100F100080830F900F90CF91DF910895DF93CF934F
:100F200000D00F92CDB7DEB789836A834B838B8164
:100F3000813029F58981882F90E0880F991FFC0165
:100F4000E058FE4FA081B1818981882F90E0880F01
:100F5000991FFC01E058FE4F0190F081E02D808147
:100F6000482F8A81282F30E081E090E0022E02C0D5
:100F7000880F991F0A94E2F7842B8C9325C08981EE
:100F8000882F90E0880F991FFC01E058FE4FA08148
:100F9000B1818981882F90E0880F991FFC01E0586A
:100FA000FE4F0190F081E02D8081482F8A81282F0B
:100FB00030E081E090E0022E02C0880F991F0A9471
:100FC000E2F7809584238C930F900F900F90CF9130
:100FD000DF910895DF93CF930F92CDB7DEB789836A
:100FE0008981882F90E0880F991FFC01E058FE4FFF
:100FF0000190F081E02D10828981882F90E0880F88
:10100000991FFC01E857FE4F0190F081E02D8FEF12
:1010100080830F90CF91DF910895DF93CF9300D01D
:10102000CDB7DEB789836A838981882F90E0880FE6
:10103000991FFC01E058FE4FA081B1818981882F62
:1010400090E0880F991FFC01E058FE4F0190F0815D
:10105000E02D8081482F8A81282F30E081E090E0C8
:1010600002C0880F991F2A95E2F7809584238C93FC
:101070008981882F90E0880F991FFC01E857FE4F67
:10108000A081B1818981882F90E0880F991FFC0190
:10109000E857FE4F0190F081E02D8081482F8A8132
:1010A000282F30E081E090E0022E02C0880F991FC7
:1010B0000A94E2F7842B8C930F900F90CF91DF91DD
:1010C0000895DF93CF930F92CDB7DEB789838981DF
:1010D000882F90E0880F991FFC01E857FE4F019080
:1010E000F081E02D8FEF80830F90CF91DF910895F5
:1010F000DF93CF930F92CDB7DEB789838981882F95
:1011000090E0880F991FFC01E857FE4F0190F08195
:10111000E02D10820F90CF91DF910895DF93CF9350
:1011200000D0CDB7DEB789836A838981882F90E0AC
:10113000880F991FFC01E857FE4F0190F081E02DC8
:101140008A8180830F900F90CF91DF910895DF9374
:10115000CF930F92CDB7DEB789838981882F90E036
:10116000880F991FFC01E857FE4FA081B18189814A
:10117000882F90E0880F991FFC01E857FE4F0190DF
:10118000F081E02D808180958C930F90CF91DF913D
:101190000895DF93CF9300D0CDB7DEB789836A83FC
:1011A0008981882F90E0880F991FFC01E857FE4F36
:1011B000A081B1818981882F90E0880F991FFC015F
:1011C000E857FE4F0190F081E02D8081482F8A8101
:1011D000282F30E081E090E0022E02C0880F991F96
:1011E0000A94E2F7842B8C930F900F90CF91DF91AC
:1011F0000895DF93CF9300D0CDB7DEB789836A839C
:101200008981882F90E0880F991FFC01E857FE4FD5
:10121000A081B1818981882F90E0880F991FFC01FE
:10122000E857FE4F0190F081E02D8081482F8A81A0
:10123000282F30E081E090E0022E02C0880F991F35
:101240000A94E2F7809584238C930F900F90CF91AE
:10125000DF910895DF93CF9300D00F92CDB7DEB723
:1012600089836A834B838B81813029F58981882F1B
:1012700090E0880F991FFC01E857FE4FA081B181D3
:101280008981882F90E0880F991FFC01E857FE4F55
:101290000190F081E02D8081482F8A81282F30E055
:1012A00081E090E0022E02C0880F991F0A94E2F7B5
:1012B000842B8C9325C08981882F90E0880F991FFB
:1012C000FC01E857FE4FA081B1818981882F90E011
:1012D000880F991FFC01E857FE4F0190F081E02D27
:1012E0008081482F8A81282F30E081E090E0022E13
:1012F00002C0880F991F0A94E2F7809584238C938B
:101300000F900F900F90CF91DF910895DF93CF93BF
:1013100000D0CDB7DEB789836A838981882F90E0BA
:10132000880F991FFC01E857FE4FA081B181898188
:10133000882F90E0880F991FFC01E857FE4F01901D
:10134000F081E02D8081482F8A81282F30E081E0D4
:1013500090E0022E02C0880F991F0A94E2F78427BA
:101360008C930F900F90CF91DF910895DF93CF93DF
:101370000F92CDB7DEB789838981882F90E0880FDF
:10138000991FFC01E858FE4F0190F081E02D80810B
:101390000F90CF91DF910895DF93CF9300D0CDB719
:1013A000DEB789836A838981882F90E0880F991F2F
:1013B000FC01E858FE4F0190F081E02D8081282F3C
:1013C00030E08A81882F90E0A90102C055954795A9
:1013D0008A95E2F7CA0181700F900F90CF91DF914B
:1013E0000895DF93CF9300D000D000D0CDB7DEB703
:1013F0009D838C836E831B828E8181508A832CC057
:101400008B81282F30E08C819D81FC01E20FF31F3E
:10141000808189838B81282F30E08C819D81DC0144
:10142000A20FB31F8A81282F30E08C819D81FC019F
:10143000E20FF31F80818C938A81282F30E08C810A
:101440009D81FC01E20FF31F898180838B818F5F77
:101450008B838A8181508A839B818A81981780F24D
:1014600026960FB6F894DEBF0FBECDBFCF91DF91A9
:101470000895DF93CF9300D000D00F92CDB7DEB7A1
:101480008D8381E090E0A0E0B0E089839A83AB8314
:10149000BC8315C089819A81AB81BC812AE030E090
:1014A00040E050E0BC01CD010E94F22BDC01CB01F9
:1014B00089839A83AB83BC838D8181508D838D8199
:1014C000882341F789819A81AB81BC81BC01CD0120
:1014D0000F900F900F900F900F90CF91DF91089584
:1014E000DF93CF93CDB7DEB7E1970FB6F894DEBFA9
:1014F0000FBECDBF89AB80E062E00E94C90880E0EA
:1015000061E00E94F90880E090E0A8E4B2E48DA7D1
:101510009EA7AFA7B8AB6DA57EA58FA598A92BEA0E
:101520003AEA4AE250E40E941F02DC01CB0189A79B
:101530009AA7ABA7BCA769A57AA58BA59CA520E017
:1015400030E040E85FE30E94250488231CF481E03A
:1015500088A791C069A57AA58BA59CA520E030E05D
:101560004FE753E40E94C50318160CF07BC06DA52D
:101570007EA58FA598A920E030E04AE754E40E94B8
:101580001903DC01CB018CA39DA3AEA3BFA36CA167
:101590007DA18EA19FA120E030E04AEF54E40E949B
:1015A0001F02DC01CB0188A399A3AAA3BBA368A156
:1015B00079A18AA19BA120E030E040E85FE30E948E
:1015C000250488232CF481E090E09F8F8E8F3FC00C
:1015D00068A179A18AA19BA120E03FEF4FE757E4E2
:1015E0000E94C50318164CF56CA17DA18EA19FA188
:1015F00020E030E040E251E40E941F02DC01CB0118
:10160000BC01CD010E944900DC01CB019F8F8E8F70
:101610000FC088EC90E09D8F8C8F8C8D9D8D0197F5
:10162000F1F79D8F8C8F8E8D9F8D01979F8F8E8F61
:101630008E8D9F8D009769F724C068A179A18AA13A
:101640009BA10E944900DC01CB019F8F8E8F8E8D64
:101650009F8D9B8F8A8F8A8D9B8D0197F1F79B8F32
:101660008A8F0FC069A57AA58BA59CA50E94490009
:10167000DC01CB0188A788A5898F898D8A95F1F730
:10168000898F80E060E00E94C90880E090E0A8E4D3
:10169000B2E48D8B9E8BAF8BB88F6D897E898F89DD
:1016A000988D2BEA3AEA4AE250E40E941F02DC01DC
:1016B000CB01898B9A8BAB8BBC8B69897A898B899F
:1016C0009C8920E030E040E85FE30E942504882305
:1016D0001CF481E0888B91C069897A898B899C8907
:1016E00020E030E04FE753E40E94C50318160CF0E9
:1016F0007BC06D897E898F89988D20E030E04AE734
:1017000054E40E941903DC01CB018C879D87AE87CE
:10171000BF876C857D858E859F8520E030E04AEF10
:1017200054E40E941F02DC01CB0188879987AA87B5
:10173000BB87688579858A859B8520E030E040E815
:101740005FE30E94250488232CF481E090E09F83CE
:101750008E833FC0688579858A859B8520E03FEF31
:101760004FE757E40E94C50318164CF56C857D853C
:101770008E859F8520E030E040E251E40E941F0208
:10178000DC01CB01BC01CD010E944900DC01CB0191
:101790009F838E830FC088EC90E09D838C838C8127
:1017A0009D810197F1F79D838C838E819F810197A5
:1017B0009F838E838E819F81009769F724C06885FF
:1017C00079858A859B850E944900DC01CB019F8336
:1017D0008E838E819F819B838A838A819B810197DF
:1017E000F1F79B838A830FC069897A898B899C89E9
:1017F0000E944900DC01CB01888B8889898389811B
:101800008A95F1F7898380E060E00E94F908E1960B
:101810000FB6F894DEBF0FBECDBFCF91DF91089514
:10182000DF93CF93CDB7DEB7E1970FB6F894DEBF65
:101830000FBECDBF89AB80E062E00E94F90880E076
:1018400061E00E94F90880E090E0A0E8BFE38DA786
:101850009EA7AFA7B8AB6DA57EA58FA598A92BEACB
:101860003AEA4AE250E40E941F02DC01CB0189A758
:101870009AA7ABA7BCA769A57AA58BA59CA520E0D4
:1018800030E040E85FE30E94250488231CF481E0F7
:1018900088A791C069A57AA58BA59CA520E030E01A
:1018A0004FE753E40E94C50318160CF07BC06DA5EA
:1018B0007EA58FA598A920E030E04AE754E40E9475
:1018C0001903DC01CB018CA39DA3AEA3BFA36CA124
:1018D0007DA18EA19FA120E030E04AEF54E40E9458
:1018E0001F02DC01CB0188A399A3AAA3BBA368A113
:1018F00079A18AA19BA120E030E040E85FE30E944B
:10190000250488232CF481E090E09F8F8E8F3FC0C8
:1019100068A179A18AA19BA120E03FEF4FE757E49E
:101920000E94C50318164CF56CA17DA18EA19FA144
:1019300020E030E040E251E40E941F02DC01CB01D4
:10194000BC01CD010E944900DC01CB019F8F8E8F2D
:101950000FC088EC90E09D8F8C8F8C8D9D8D0197B2
:10196000F1F79D8F8C8F8E8D9F8D01979F8F8E8F1E
:101970008E8D9F8D009769F724C068A179A18AA1F7
:101980009BA10E944900DC01CB019F8F8E8F8E8D21
:101990009F8D9B8F8A8F8A8D9B8D0197F1F79B8FEF
:1019A0008A8F0FC069A57AA58BA59CA50E944900C6
:1019B000DC01CB0188A788A5898F898D8A95F1F7ED
:1019C000898F80E060E00E94C90880E090E0A0E894
:1019D000BFE38D8B9E8BAF8BB88F6D897E898F898E
:1019E000988D2BEA3AEA4AE250E40E941F02DC0199
:1019F000CB01898B9A8BAB8BBC8B69897A898B895C
:101A00009C8920E030E040E85FE30E9425048823C1
:101A10001CF481E0888B91C069897A898B899C89C3
:101A200020E030E04FE753E40E94C50318160CF0A5
:101A30007BC06D897E898F89988D20E030E04AE7F0
:101A400054E40E941903DC01CB018C879D87AE878B
:101A5000BF876C857D858E859F8520E030E04AEFCD
:101A600054E40E941F02DC01CB0188879987AA8772
:101A7000BB87688579858A859B8520E030E040E8D2
:101A80005FE30E94250488232CF481E090E09F838B
:101A90008E833FC0688579858A859B8520E03FEFEE
:101AA0004FE757E40E94C50318164CF56C857D85F9
:101AB0008E859F8520E030E040E251E40E941F02C5
:101AC000DC01CB01BC01CD010E944900DC01CB014E
:101AD0009F838E830FC088EC90E09D838C838C81E4
:101AE0009D810197F1F79D838C838E819F81019762
:101AF0009F838E838E819F81009769F724C06885BC
:101B000079858A859B850E944900DC01CB019F83F2
:101B10008E838E819F819B838A838A819B8101979B
:101B2000F1F79B838A830FC069897A898B899C89A5
:101B30000E944900DC01CB01888B888989838981D7
:101B40008A95F1F7898381E069A90E948E0880E077
:101B500060E00E94F908E1960FB6F894DEBF0FBE70
:101B6000CDBFCF91DF9108950F931F93DF93CF9354
:101B7000CDB7DEB7C356D0400FB6F894DEBF0FBE68
:101B8000CDBFFE01ED59FF4F808380E062E00E94EF
:101B9000C90880E061E00E94F908FE01E35AFF4FA6
:101BA00080E090E0A0E8BFE380839183A283B383C9
:101BB0008E01075A1F4FFE01E35AFF4F608171816A
:101BC000828193812BEA3AEA4AE250E40E941F02A2
:101BD000DC01CB01F80180839183A283B383FE01F2
:101BE000E75AFF4F608171818281938120E030E06C
:101BF00040E85FE30E942504882334F4FE01E85A9C
:101C0000FF4F81E08083E0C0FE01E75AFF4F608113
:101C100071818281938120E030E04FE753E40E949C
:101C2000C50318160CF0C0C0FE01E35AFF4F6081D7
:101C300071818281938120E030E04AE754E40E9480
:101C40001903DC01CB01FE01EC5AFF4F8083918325
:101C5000A283B3838E01005B1F4FFE01EC5AFF4F3E
:101C6000608171818281938120E030E04AEF54E409
:101C70000E941F02DC01CB01F80180839183A283C3
:101C8000B383FE01E05BFF4F6081718182819381AC
:101C900020E030E040E85FE30E942504882344F41C
:101CA000FE01E25BFF4F81E090E09183808364C09E
:101CB000FE01E05BFF4F608171818281938120E0B2
:101CC0003FEF4FE757E40E94C50318160CF043C0DE
:101CD000FE01EC5AFF4F608171818281938120E087
:101CE00030E040E251E40E941F02DC01CB018E0192
:101CF000025B1F4FBC01CD010E944900DC01CB01FA
:101D0000F801918380831FC0FE01E45BFF4F88ECE4
:101D100090E091838083FE01E45BFF4F808191819D
:101D20000197F1F7FE01E45BFF4F91838083DE01B1
:101D3000A25BBF4FFE01E25BFF4F80819181019763
:101D400011969C938E93FE01E25BFF4F80819181FF
:101D50000097D1F64BC08E01025B1F4FFE01E05B86
:101D6000FF4F60817181828193810E944900DC0173
:101D7000CB01F80191838083DE01A65BBF4FFE019A
:101D8000E25BFF4F8081918111969C938E93FE01BF
:101D9000E65BFF4F808191810197F1F7FE01E65BE1
:101DA000FF4F9183808322C08E01085A1F4FFE018E
:101DB000E75AFF4F60817181828193810E944900BF
:101DC000DC01CB01F8018083DE01A75BBF4FFE0180
:101DD000E85AFF4F80818C93FE01E75BFF4F8081C3
:101DE0008A95F1F7FE01E75BFF4F808380E060E0BA
:101DF0000E94C908FE01EB5BFF4F80E090E0A0E885
:101E0000BFE380839183A283B3838E010F5B1F4F57
:101E1000FE01EB5BFF4F60817181828193812BEA30
:101E20003AEA4AE250E40E941F02DC01CB01F801C9
:101E300080839183A283B383FE01EF5BFF4F6081B8
:101E400071818281938120E030E040E85FE30E946D
:101E50002504882334F481E0FE01E05CFF4F808399
:101E60009DC0FE01EF5BFF4F608171818281938194
:101E700020E030E04FE753E40E94C50318160CF051
:101E80007EC0FE01EB5BFF4F608171818281938197
:101E900020E030E04AE754E40E941903DC01CB0162
:101EA0008CAF9DAFAEAFBFAF6CAD7DAD8EAD9FAD16
:101EB00020E030E04AEF54E40E941F02DC01CB0135
:101EC00088AF99AFAAAFBBAF68AD79AD8AAD9BAD16
:101ED00020E030E040E85FE30E94250488232CF4F2
:101EE00081E090E09FAB8EAB3FC068AD79AD8AAD2D
:101EF0009BAD20E03FEF4FE757E40E94C503181663
:101F00004CF56CAD7DAD8EAD9FAD20E030E040E294
:101F100051E40E941F02DC01CB01BC01CD010E94F3
:101F20004900DC01CB019FAB8EAB0FC088EC90E089
:101F30009DAB8CAB8CA99DA90197F1F79DAB8CABA8
:101F40008EA99FA901979FAB8EAB8EA99FA90097E1
:101F500069F72DC068AD79AD8AAD9BAD0E9449008F
:101F6000DC01CB019FAB8EAB8EA99FA99BAB8AAB4B
:101F70008AA99BA90197F1F79BAB8AAB18C0FE0118
:101F8000EF5BFF4F60817181828193810E944900E4
:101F9000DC01CB01FE01E05CFF4F8083FE01E05CD1
:101FA000FF4F808189AB89A98A95F1F789ABFE0142
:101FB000EE59FF4F84E0808326C0FE01ED59FF4FAC
:101FC0008081282F30E0FE01EE59FF4F8081882F5D
:101FD00090E0A90102C0559547958A95E2F7CA019C
:101FE000982F9170FE01EE59FF4F81E06081492FDB
:101FF0000E942A09DE01AE59BF4FFE01EE59FF4F84
:1020000080818F5F8C93FE01EE59FF4F8081883075
:10201000A0F280E060E00E94F90880E090E0A0E299
:10202000B1E48DA79EA7AFA7B8AB6DA57EA58FA580
:1020300098A92BEA3AEA4AE250E40E941F02DC0126
:10204000CB0189A79AA7ABA7BCA769A57AA58BA541
:102050009CA520E030E040E85FE30E94250488234F
:102060001CF481E088A791C069A57AA58BA59CA5E1
:1020700020E030E04FE753E40E94C50318160CF04F
:102080007BC06DA57EA58FA598A920E030E04AE72A
:1020900054E40E941903DC01CB018CA39DA3AEA3E1
:1020A000BFA36CA17DA18EA19FA120E030E04AEFEB
:1020B00054E40E941F02DC01CB0188A399A3AAA3C8
:1020C000BBA368A179A18AA19BA120E030E040E8F0
:1020D0005FE30E94250488232CF481E090E09F8F29
:1020E0008E8F3FC068A179A18AA19BA120E03FEF1C
:1020F0004FE757E40E94C50318164CF56CA17DA16B
:102100008EA19FA120E030E040E251E40E941F0236
:10211000DC01CB01BC01CD010E944900DC01CB01F7
:102120009F8F8E8F0FC088EC90E09D8F8C8F8C8D51
:102130009D8D0197F1F79D8F8C8F8E8D9F8D0197CF
:102140009F8F8E8F8E8D9F8D009769F724C068A119
:1021500079A18AA19BA10E944900DC01CB019F8F3C
:102160008E8F8E8D9F8D9B8F8A8F8A8D9B8D0197F1
:10217000F1F79B8F8A8F0FC069A57AA58BA59CA5C7
:102180000E944900DC01CB0188A788A5898F898D31
:102190008A95F1F7898F80E060E00E94C90880E0AD
:1021A00090E0A0E8BFE38D8B9E8BAF8BB88F6D89DD
:1021B0007E898F89988D2BEA3AEA4AE250E40E94A0
:1021C0001F02DC01CB01898B9A8BAB8BBC8B69899D
:1021D0007A898B899C8920E030E040E85FE30E94A7
:1021E000250488231CF481E0888B91C069897A8951
:1021F0008B899C8920E030E04FE753E40E94C503BF
:1022000018160CF07BC06D897E898F89988D20E02F
:1022100030E04AE754E40E941903DC01CB018C87CB
:102220009D87AE87BF876C857D858E859F8520E0E5
:1022300030E04AEF54E40E941F02DC01CB018887A2
:102240009987AA87BB87688579858A859B8520E0E1
:1022500030E040E85FE30E94250488232CF481E00D
:1022600090E09F838E833FC0688579858A859B85B2
:1022700020E03FEF4FE757E40E94C50318164CF5E6
:102280006C857D858E859F8520E030E040E251E4BD
:102290000E941F02DC01CB01BC01CD010E9449005C
:1022A000DC01CB019F838E830FC088EC90E09D837F
:1022B0008C838C819D810197F1F79D838C838E8126
:1022C0009F8101979F838E838E819F81009769F7FD
:1022D00024C0688579858A859B850E944900DC0138
:1022E000CB019F838E838E819F819B838A838A818A
:1022F0009B810197F1F79B838A830FC069897A8953
:102300008B899C890E944900DC01CB01888B8889DC
:10231000898389818A95F1F78983FE01EF59FF4FFF
:1023200084E0808327C0FE01ED59FF4F8081282F74
:1023300030E0FE01EF59FF4F8081882F90E0049735
:10234000F90102C0F595E7958A95E2F7CF01982F3C
:102350009170FE01EF59FF4F81E06081492F0E948B
:102360002A09DE01AF59BF4FFE01EF59FF4F8081AF
:102370008F5F8C93FE01EF59FF4F8081883098F278
:1023800080E060E00E94F908CD59DF4F0FB6F89465
:10239000DEBF0FBECDBFCF91DF911F910F9108958A
:1023A0000F931F93DF93CF93CDB7DEB7C356D040C3
:1023B0000FB6F894DEBF0FBECDBFFE01ED59FF4F43
:1023C000808380E062E00E94F90880E061E00E9482
:1023D000F908FE01E35AFF4F80E090E0A0E8BFE378
:1023E00080839183A283B3838E01075A1F4FFE011E
:1023F000E35AFF4F60817181828193812BEA3AEA2F
:102400004AE250E40E941F02DC01CB01F801808304
:102410009183A283B383FE01E75AFF4F60817181EC
:102420008281938120E030E040E85FE30E94250450
:10243000882334F4FE01E85AFF4F81E08083E0C036
:10244000FE01E75AFF4F608171818281938120E014
:1024500030E04FE753E40E94C50318160CF0C0C0EB
:10246000FE01E35AFF4F608171818281938120E0F8
:1024700030E04AE754E40E941903DC01CB01FE017D
:10248000EC5AFF4F80839183A283B3838E01005B5C
:102490001F4FFE01EC5AFF4F608171818281938151
:1024A00020E030E04AEF54E40E941F02DC01CB013F
:1024B000F80180839183A283B383FE01E05BFF4F29
:1024C000608171818281938120E030E040E85FE3A8
:1024D0000E942504882344F4FE01E25BFF4F81E063
:1024E00090E09183808364C0FE01E05BFF4F6081D8
:1024F00071818281938120E03FEF4FE757E40E9492
:10250000C50318160CF043C0FE01EC5AFF4F608162
:1025100071818281938120E030E040E251E40E94A9
:102520001F02DC01CB018E01025B1F4FBC01CD01FC
:102530000E944900DC01CB01F801918380831FC018
:10254000FE01E45BFF4F88EC90E091838083FE0105
:10255000E45BFF4F808191810197F1F7FE01E45B1D
:10256000FF4F91838083DE01A25BBF4FFE01E25BE0
:10257000FF4F80819181019711969C938E93FE016C
:10258000E25BFF4F808191810097D1F64BC08E01B5
:10259000025B1F4FFE01E05BFF4F60817181828112
:1025A00093810E944900DC01CB01F8019183808373
:1025B000DE01A65BBF4FFE01E25BFF4F8081918190
:1025C00011969C938E93FE01E65BFF4F8081918173
:1025D0000197F1F7FE01E65BFF4F9183808322C0F4
:1025E0008E01085A1F4FFE01E75AFF4F608171812B
:1025F000828193810E944900DC01CB01F801808334
:10260000DE01A75BBF4FFE01E85AFF4F80818C932C
:10261000FE01E75BFF4F80818A95F1F7FE01E75BE2
:10262000FF4F808380E060E00E94C908FE01EB5B01
:10263000FF4F80E090E0A0E8BFE380839183A28316
:10264000B3838E010F5B1F4FFE01EB5BFF4F608179
:102650007181828193812BEA3AEA4AE250E40E9436
:102660001F02DC01CB01F80180839183A283B38335
:10267000FE01EF5BFF4F608171818281938120E0D9
:1026800030E040E85FE30E942504882334F481E0D1
:10269000FE01E05CFF4F80839DC0FE01EF5BFF4FBA
:1026A000608171818281938120E030E04FE753E4C3
:1026B0000E94C50318160CF07EC0FE01EB5BFF4FB5
:1026C000608171818281938120E030E04AE754E4A7
:1026D0000E941903DC01CB018CAF9DAFAEAFBFAF41
:1026E0006CAD7DAD8EAD9FAD20E030E04AEF54E49F
:1026F0000E941F02DC01CB0188AF99AFAAAFBBAF2C
:1027000068AD79AD8AAD9BAD20E030E040E85FE395
:102710000E94250488232CF481E090E09FAB8EABCF
:102720003FC068AD79AD8AAD9BAD20E03FEF4FE78C
:1027300057E40E94C50318164CF56CAD7DAD8EAD07
:102740009FAD20E030E040E251E40E941F02DC0136
:10275000CB01BC01CD010E944900DC01CB019FAB44
:102760008EAB0FC088EC90E09DAB8CAB8CA99DA983
:102770000197F1F79DAB8CAB8EA99FA901979FABF9
:102780008EAB8EA99FA9009769F72DC068AD79AD72
:102790008AAD9BAD0E944900DC01CB019FAB8EABA3
:1027A0008EA99FA99BAB8AAB8AA99BA90197F1F738
:1027B0009BAB8AAB18C0FE01EF5BFF4F608171815C
:1027C000828193810E944900DC01CB01FE01E05C23
:1027D000FF4F8083FE01E05CFF4F808189AB89A9B8
:1027E0008A95F1F789ABFE01EE59FF4F84E08083B3
:1027F00026C0FE01ED59FF4F8081282F30E0FE01F9
:10280000EE59FF4F8081882F90E0A90102C05595B5
:1028100047958A95E2F7CA01982F9170FE01EE590B
:10282000FF4F81E06081492F0E942A09DE01AE59E5
:10283000BF4FFE01EE59FF4F80818F5F8C93FE01E9
:10284000EE59FF4F80818830A0F280E060E00E9466
:10285000F90880E090E0A0E2B1E48DA79EA7AFA7C1
:10286000B8AB6DA57EA58FA598A92BEA3AEA4AE2F6
:1028700050E40E941F02DC01CB0189A79AA7ABA7F5
:10288000BCA769A57AA58BA59CA520E030E040E80F
:102890005FE30E94250488231CF481E088A791C08F
:1028A00069A57AA58BA59CA520E030E04FE753E40D
:1028B0000E94C50318160CF07BC06DA57EA58FA5E0
:1028C00098A920E030E04AE754E40E941903DC01B3
:1028D000CB018CA39DA3AEA3BFA36CA17DA18EA1B0
:1028E0009FA120E030E04AEF54E40E941F02DC0187
:1028F000CB0188A399A3AAA3BBA368A179A18AA1AC
:102900009BA120E030E040E85FE30E94250488239B
:102910002CF481E090E09F8F8E8F3FC068A179A159
:102920008AA19BA120E03FEF4FE757E40E94C50337
:1029300018164CF56CA17DA18EA19FA120E030E07E
:1029400040E251E40E941F02DC01CB01BC01CD0139
:102950000E944900DC01CB019F8F8E8F0FC088EC55
:1029600090E09D8F8C8F8C8D9D8D0197F1F79D8FC1
:102970008C8F8E8D9F8D01979F8F8E8F8E8D9F8DCB
:10298000009769F724C068A179A18AA19BA10E9440
:102990004900DC01CB019F8F8E8F8E8D9F8D9B8F89
:1029A0008A8F8A8D9B8D0197F1F79B8F8A8F0FC03D
:1029B00069A57AA58BA59CA50E944900DC01CB01E5
:1029C00088A788A5898F898D8A95F1F7898F80E0FE
:1029D00060E00E94C90880E090E0A0E8BFE38D8B32
:1029E0009E8BAF8BB88F6D897E898F89988D2BEAEE
:1029F0003AEA4AE250E40E941F02DC01CB01898BD3
:102A00009A8BAB8BBC8B69897A898B899C8920E0F6
:102A100030E040E85FE30E94250488231CF481E055
:102A2000888B91C069897A898B899C8920E030E004
:102A30004FE753E40E94C50318160CF07BC06D8964
:102A40007E898F89988D20E030E04AE754E40E9427
:102A50001903DC01CB018C879D87AE87BF876C850E
:102A60007D858E859F8520E030E04AEF54E40E940A
:102A70001F02DC01CB0188879987AA87BB876885FD
:102A800079858A859B8520E030E040E85FE30E94FD
:102A9000250488232CF481E090E09F838E833FC03F
:102AA000688579858A859B8520E03FEF4FE757E46D
:102AB0000E94C50318164CF56C857D858E859F8513
:102AC00020E030E040E251E40E941F02DC01CB0133
:102AD000BC01CD010E944900DC01CB019F838E83A4
:102AE0000FC088EC90E09D838C838C819D81019741
:102AF000F1F79D838C838E819F8101979F838E83C5
:102B00008E819F81009769F724C0688579858A85C1
:102B10009B850E944900DC01CB019F838E838E81BF
:102B20009F819B838A838A819B810197F1F79B8395
:102B30008A830FC069897A898B899C890E944900A0
:102B4000DC01CB01888B8889898389818A95F1F79B
:102B50008983FE01EF59FF4F84E0808327C0FE0187
:102B6000ED59FF4F8081282F30E0FE01EF59FF4FD4
:102B70008081882F90E00497F90102C0F595E795D0
:102B80008A95E2F7CF01982F9170FE01EF59FF4F20
:102B900081E06081492F0E942A09DE01AF59BF4FB1
:102BA000FE01EF59FF4F80818F5F8C93FE01EF593B
:102BB000FF4F8081883098F280E060E00E94F90841
:102BC000CD59DF4F0FB6F894DEBF0FBECDBFCF910A
:102BD000DF911F910F9108950F931F93DF93CF9370
:102BE000CDB7DEB7CB5AD0400FB6F894DEBF0FBEDC
:102BF000CDBF80E062E00E94F90880E061E00E94C1
:102C0000F908FE01EB55FF4F80E090E0A0E8BFE33C
:102C100080839183A283B3838E010F551F4FFE01E2
:102C2000EB55FF4F60817181828193812BEA3AEAF3
:102C30004AE250E40E941F02DC01CB01F8018083CC
:102C40009183A283B383FE01EF55FF4F60817181B1
:102C50008281938120E030E040E85FE30E94250418
:102C6000882334F4FE01E056FF4F81E08083E0C00A
:102C7000FE01EF55FF4F608171818281938120E0D9
:102C800030E04FE753E40E94C50318160CF0C0C0B3
:102C9000FE01EB55FF4F608171818281938120E0BD
:102CA00030E04AE754E40E941903DC01CB01FE0145
:102CB000E456FF4F80839183A283B3838E0108562D
:102CC0001F4FFE01E456FF4F608171818281938125
:102CD00020E030E04AEF54E40E941F02DC01CB0107
:102CE000F80180839183A283B383FE01E856FF4FEE
:102CF000608171818281938120E030E040E85FE370
:102D00000E942504882344F4FE01EA56FF4F81E027
:102D100090E09183808364C0FE01E856FF4F60819C
:102D200071818281938120E03FEF4FE757E40E9459
:102D3000C50318160CF043C0FE01E456FF4F608136
:102D400071818281938120E030E040E251E40E9471
:102D50001F02DC01CB018E010A561F4FBC01CD01C1
:102D60000E944900DC01CB01F801918380831FC0E0
:102D7000FE01EC56FF4F88EC90E091838083FE01CA
:102D8000EC56FF4F808191810197F1F7FE01EC56DF
:102D9000FF4F91838083DE01AA56BF4FFE01EA56A2
:102DA000FF4F80819181019711969C938E93FE0134
:102DB000EA56FF4F808191810097D1F64BC08E017A
:102DC0000A561F4FFE01E856FF4F608171818281D4
:102DD00093810E944900DC01CB01F801918380833B
:102DE000DE01AE56BF4FFE01EA56FF4F8081918152
:102DF00011969C938E93FE01EE56FF4F8081918138
:102E00000197F1F7FE01EE56FF4F9183808322C0B8
:102E10008E0100561F4FFE01EF55FF4F60817181FB
:102E2000828193810E944900DC01CB01F8018083FB
:102E3000DE01AF56BF4FFE01E056FF4F80818C93FD
:102E4000FE01EF56FF4F80818A95F1F7FE01EF56A4
:102E5000FF4F808380E060E00E94C908FE01E357D5
:102E6000FF4F80E090E0A0E8BFE380839183A283DE
:102E7000B3838E0107571F4FFE01E357FF4F608159
:102E80007181828193812BEA3AEA4AE250E40E94FE
:102E90001F02DC01CB01F80180839183A283B383FD
:102EA000FE01E757FF4F608171818281938120E0AD
:102EB00030E040E85FE30E942504882334F4FE01FB
:102EC000E857FF4F81E08083E0C0FE01E757FF4FE6
:102ED000608171818281938120E030E04FE753E48B
:102EE0000E94C50318160CF0C0C0FE01E357FF4F47
:102EF000608171818281938120E030E04AE754E46F
:102F00000E941903DC01CB01FE01EC57FF4F8083C7
:102F10009183A283B3838E0100581F4FFE01EC57AB
:102F2000FF4F608171818281938120E030E04AEF20
:102F300054E40E941F02DC01CB01F80180839183DD
:102F4000A283B383FE01E058FF4F608171818281CB
:102F5000938120E030E040E85FE30E94250488236D
:102F600044F4FE01E258FF4F81E090E091838083BA
:102F700064C0FE01E058FF4F6081718182819381BE
:102F800020E03FEF4FE757E40E94C50318160CF00E
:102F900043C0FE01EC57FF4F6081718182819381B4
:102FA00020E030E040E251E40E941F02DC01CB014E
:102FB0008E0102581F4FBC01CD010E944900DC0167
:102FC000CB01F801918380831FC0FE01E458FF4FBD
:102FD00088EC90E091838083FE01E458FF4F80816C
:102FE00091810197F1F7FE01E458FF4F91838083AF
:102FF000DE01A258BF4FFE01E258FF4F8081918150
:10300000019711969C938E93FE01E258FF4F8081A9
:1030100091810097D1F64BC08E0102581F4FFE01DF
:10302000E058FF4F60817181828193810E94490045
:10303000DC01CB01F80191838083DE01A658BF4FEC
:10304000FE01E258FF4F8081918111969C938E93EF
:10305000FE01E658FF4F808191810197F1F7FE0153
:10306000E658FF4F9183808322C08E0108571F4F7F
:10307000FE01E757FF4F60817181828193810E9439
:103080004900DC01CB01F8018083DE01A758BF4F66
:10309000FE01E857FF4F80818C93FE01E758FF4FF8
:1030A00080818A95F1F7FE01E758FF4F8083FE018A
:1030B000E555FF4F108223C0FE01E555FF4F80818B
:1030C000482F4C5FFE01E555FF4F8081282F30E0EF
:1030D00082E090E002C0959587952A95E2F7982FB7
:1030E000917081E0642F492F0E942A09DE01A555C5
:1030F000BF4FFE01E555FF4F80818F5F8C93FE012E
:10310000E555FF4F80818430B8F280E060E00E9496
:10311000F908FE01EB58FF4F80E090E0A0E2B1E437
:1031200080839183A283B3838E010F581F4FFE01CA
:10313000EB58FF4F60817181828193812BEA3AEADB
:103140004AE250E40E941F02DC01CB01F8018083B7
:103150009183A283B383FE01EF58FF4F6081718199
:103160008281938120E030E040E85FE30E94250403
:10317000882334F4FE01E059FF4F81E08083E0C0F2
:10318000FE01EF58FF4F608171818281938120E0C1
:1031900030E04FE753E40E94C50318160CF0C0C09E
:1031A000FE01EB58FF4F608171818281938120E0A5
:1031B00030E04AE754E40E941903DC01CB01FE0130
:1031C000E459FF4F80839183A283B3838E01085912
:1031D0001F4FFE01E459FF4F60817181828193810D
:1031E00020E030E04AEF54E40E941F02DC01CB01F2
:1031F000F80180839183A283B383FE01E859FF4FD6
:10320000608171818281938120E030E040E85FE35A
:103210000E942504882344F4FE01EA59FF4F81E00F
:1032200090E09183808364C0FE01E859FF4F608184
:1032300071818281938120E03FEF4FE757E40E9444
:10324000C50318160CF043C0FE01E459FF4F60811E
:1032500071818281938120E030E040E251E40E945C
:103260001F02DC01CB018E010A591F4FBC01CD01A9
:103270000E944900DC01CB01F801918380831FC0CB
:10328000FE01EC59FF4F88EC90E091838083FE01B2
:10329000EC59FF4F808191810197F1F7FE01EC59C4
:1032A000FF4F91838083DE01AA59BF4FFE01EA5987
:1032B000FF4F80819181019711969C938E93FE011F
:1032C000EA59FF4F808191810097D1F64BC08E0162
:1032D0000A591F4FFE01E859FF4F608171818281B9
:1032E00093810E944900DC01CB01F8019183808326
:1032F000DE01AE59BF4FFE01EA59FF4F8081918137
:1033000011969C938E93FE01EE59FF4F808191811F
:103310000197F1F7FE01EE59FF4F9183808322C0A0
:103320008E0100591F4FFE01EF58FF4F60817181E0
:10333000828193810E944900DC01CB01F8018083E6
:10334000DE01AF59BF4FFE01E059FF4F80818C93E2
:10335000FE01EF59FF4F80818A95F1F7FE01EF5989
:10336000FF4F808380E060E00E94C908FE01E35ABD
:10337000FF4F80E090E0A0E8BFE380839183A283C9
:10338000B3838E01075A1F4FFE01E35AFF4F60813E
:103390007181828193812BEA3AEA4AE250E40E94E9
:1033A0001F02DC01CB01F80180839183A283B383E8
:1033B000FE01E75AFF4F608171818281938120E095
:1033C00030E040E85FE30E942504882334F4FE01E6
:1033D000E85AFF4F81E08083E0C0FE01E75AFF4FCB
:1033E000608171818281938120E030E04FE753E476
:1033F0000E94C50318160CF0C0C0FE01E35AFF4F2F
:10340000608171818281938120E030E04AE754E459
:103410000E941903DC01CB01FE01EC5AFF4F8083AF
:103420009183A283B3838E01005B1F4FFE01EC5A90
:10343000FF4F608171818281938120E030E04AEF0B
:1034400054E40E941F02DC01CB01F80180839183C8
:10345000A283B383FE01E05BFF4F608171818281B3
:10346000938120E030E040E85FE30E942504882358
:1034700044F4FE01E25BFF4F81E090E091838083A2
:1034800064C0FE01E05BFF4F6081718182819381A6
:1034900020E03FEF4FE757E40E94C50318160CF0F9
:1034A00043C0FE01EC5AFF4F60817181828193819C
:1034B00020E030E040E251E40E941F02DC01CB0139
:1034C0008E01025B1F4FBC01CD010E944900DC014F
:1034D000CB01F801918380831FC0FE01E45BFF4FA5
:1034E00088EC90E091838083FE01E45BFF4F808154
:1034F00091810197F1F7FE01E45BFF4F9183808397
:10350000DE01A25BBF4FFE01E25BFF4F8081918134
:10351000019711969C938E93FE01E25BFF4F808191
:1035200091810097D1F64BC08E01025B1F4FFE01C7
:10353000E05BFF4F60817181828193810E9449002D
:10354000DC01CB01F80191838083DE01A65BBF4FD4
:10355000FE01E25BFF4F8081918111969C938E93D7
:10356000FE01E65BFF4F808191810197F1F7FE013B
:10357000E65BFF4F9183808322C08E01085A1F4F64
:10358000FE01E75AFF4F60817181828193810E9421
:103590004900DC01CB01F8018083DE01A75BBF4F4E
:1035A000FE01E85AFF4F80818C93FE01E75BFF4FDD
:1035B00080818A95F1F7FE01E75BFF4F8083FE0172
:1035C000E655FF4F108223C0FE01E655FF4F808174
:1035D000482F4C5FFE01E655FF4F8081282F30E0D9
:1035E00082E090E002C0959587952A95E2F7982FA2
:1035F000917081E0642F492F0E942A09DE01A655AF
:10360000BF4FFE01E655FF4F80818F5F8C93FE0117
:10361000E655FF4F80818430B8F280E060E00E9480
:10362000F908FE01EB5BFF4F80E090E0A0E2B1E41F
:1036300080839183A283B3838E010F5B1F4FFE01B2
:10364000EB5BFF4F60817181828193812BEA3AEAC3
:103650004AE250E40E941F02DC01CB01F8018083A2
:103660009183A283B383FE01EF5BFF4F6081718181
:103670008281938120E030E040E85FE30E942504EE
:10368000882334F481E0FE01E05CFF4F80839DC01D
:10369000FE01EF5BFF4F608171818281938120E0A9
:1036A00030E04FE753E40E94C50318160CF07EC0CB
:1036B000FE01EB5BFF4F608171818281938120E08D
:1036C00030E04AE754E40E941903DC01CB018CAFDF
:1036D0009DAFAEAFBFAF6CAD7DAD8EAD9FAD20E009
:1036E00030E04AEF54E40E941F02DC01CB0188AFB6
:1036F00099AFAAAFBBAF68AD79AD8AAD9BAD20E005
:1037000030E040E85FE30E94250488232CF481E048
:1037100090E09FAB8EAB3FC068AD79AD8AAD9BADFD
:1037200020E03FEF4FE757E40E94C50318164CF521
:103730006CAD7DAD8EAD9FAD20E030E040E251E458
:103740000E941F02DC01CB01BC01CD010E94490097
:10375000DC01CB019FAB8EAB0FC088EC90E09DAB42
:103760008CAB8CA99DA90197F1F79DAB8CAB8EA971
:103770009FA901979FAB8EAB8EA99FA9009769F770
:103780002DC068AD79AD8AAD9BAD0E944900DC01CA
:10379000CB019FAB8EAB8EA99FA99BAB8AAB8AA9AD
:1037A0009BA90197F1F79BAB8AAB18C0FE01EF5BB9
:1037B000FF4F60817181828193810E944900DC0109
:1037C000CB01FE01E05CFF4F8083FE01E05CFF4F18
:1037D000808189AB89A98A95F1F789AB80E060E0A7
:1037E0000E94C90880E090E0A0E8BFE38DA79EA7F3
:1037F000AFA7B8AB6DA57EA58FA598A92BEA3AEA2D
:103800004AE250E40E941F02DC01CB0189A79AA77B
:10381000ABA7BCA769A57AA58BA59CA520E030E045
:1038200040E85FE30E94250488231CF481E088A718
:1038300091C069A57AA58BA59CA520E030E04FE753
:1038400053E40E94C50318160CF07BC06DA57EA53D
:103850008FA598A920E030E04AE754E40E941903BC
:10386000DC01CB018CA39DA3AEA3BFA36CA17DA162
:103870008EA19FA120E030E04AEF54E40E941F0295
:10388000DC01CB0188A399A3AAA3BBA368A179A15A
:103890008AA19BA120E030E040E85FE30E9425047C
:1038A00088232CF481E090E09F8F8E8F3FC068A129
:1038B00079A18AA19BA120E03FEF4FE757E40E9446
:1038C000C50318164CF56CA17DA18EA19FA120E027
:1038D00030E040E251E40E941F02DC01CB01BC0158
:1038E000CD010E944900DC01CB019F8F8E8F0FC05C
:1038F00088EC90E09D8F8C8F8C8D9D8D0197F1F7DA
:103900009D8F8C8F8E8D9F8D01979F8F8E8F8E8D2B
:103910009F8D009769F724C068A179A18AA19BA116
:103920000E944900DC01CB019F8F8E8F8E8D9F8D71
:103930009B8F8A8F8A8D9B8D0197F1F79B8F8A8F42
:103940000FC069A57AA58BA59CA50E944900DC0142
:10395000CB0188A788A5898F898D8A95F1F7898FF2
:10396000FE01E755FF4F108223C0FE01E755FF4FD0
:103970008081482F4C5FFE01E755FF4F8081282F43
:1039800030E088E090E002C0959587952A95E2F7AF
:10399000982F917081E0642F492F0E942A09DE013F
:1039A000A755BF4FFE01E755FF4F80818F5F8C9376
:1039B000FE01E755FF4F80818430B8F280E060E07F
:1039C0000E94F90880E090E0A0E2B1E48D8B9E8B2C
:1039D000AF8BB88F6D897E898F89988D2BEA3AEAF3
:1039E0004AE250E40E941F02DC01CB01898B9A8BD2
:1039F000AB8BBC8B69897A898B899C8920E030E00C
:103A000040E85FE30E94250488231CF481E0888B52
:103A100091C069897A898B899C8920E030E04FE7E1
:103A200053E40E94C50318160CF07BC06D897E8993
:103A30008F89988D20E030E04AE754E40E94190312
:103A4000DC01CB018C879D87AE87BF876C857D8528
:103A50008E859F8520E030E04AEF54E40E941F02EB
:103A6000DC01CB0188879987AA87BB876885798520
:103A70008A859B8520E030E040E85FE30E942504D2
:103A800088232CF481E090E09F838E833FC068857B
:103A900079858A859B8520E03FEF4FE757E40E94B8
:103AA000C50318164CF56C857D858E859F8520E0B5
:103AB00030E040E251E40E941F02DC01CB01BC0176
:103AC000CD010E944900DC01CB019F838E830FC092
:103AD00088EC90E09D838C838C819D810197F1F728
:103AE0009D838C838E819F8101979F838E838E819E
:103AF0009F81009769F724C0688579858A859B85B1
:103B00000E944900DC01CB019F838E838E819F81BF
:103B10009B838A838A819B810197F1F79B838A83A8
:103B20000FC069897A898B899C890E944900DC01D0
:103B3000CB01888B8889898389818A95F1F789836C
:103B4000C555DF4F0FB6F894DEBF0FBECDBFCF9186
:103B5000DF911F910F9108950F931F93DF93CF93E0
:103B6000CDB7DEB7CC54D0400FB6F894DEBF0FBE51
:103B7000CDBF81E067E041E00E948E0781E066E012
:103B800041E00E948E0781E065E041E00E948E07DF
:103B900081E064E041E00E948E0780E062E041E065
:103BA0000E948E0780E061E041E00E948E0780E085
:103BB00060E041E00E948E07FE01E75BFF4F80E07E
:103BC00090E0A8E4B2E480839183A283B3838E0162
:103BD0000B5B1F4FFE01E75BFF4F608171818281AC
:103BE000938120E030E04AEF54E40E941F02DC01A0
:103BF000CB01F80180839183A283B383FE01EB5B49
:103C0000FF4F608171818281938120E030E040E844
:103C10005FE30E942504882344F4FE01ED5BFF4F1F
:103C200081E090E09183808364C0FE01EB5BFF4FF5
:103C3000608171818281938120E03FEF4FE757E4FB
:103C40000E94C50318160CF043C0FE01E75BFF4F4E
:103C5000608171818281938120E030E040E251E413
:103C60000E941F02DC01CB018E010D5B1F4FBC01C6
:103C7000CD010E944900DC01CB01F80191838083D2
:103C80001FC0FE01EF5BFF4F88EC90E091838083C3
:103C9000FE01EF5BFF4F808191810197F1F7FE01FB
:103CA000EF5BFF4F91838083DE01AD5BBF4FFE0171
:103CB000ED5BFF4F80819181019711969C938E93CC
:103CC000FE01ED5BFF4F808191810097D1F624C00A
:103CD0008E010D5B1F4FFE01EB5BFF4F6081718119
:103CE000828193810E944900DC01CB01F80191831C
:103CF0008083FE01ED5BFF4F80819181FE01FF9685
:103D000091838083FE01FF96808191810197F1F775
:103D1000FE01FF96918380830E94EC1580E090E085
:103D2000A8E4B2E48BAF9CAFADAFBEAF6BAD7CADE2
:103D30008DAD9EAD2BEA3AEA4AE250E40E941F02A2
:103D4000DC01CB018FAB98AFA9AFBAAF6FA978AD4B
:103D500089AD9AAD20E030E040E85FE30E942504A1
:103D600088231CF481E08EAB91C06FA978AD89AD3A
:103D70009AAD20E030E04FE753E40E94C5031816E7
:103D80000CF07BC06BAD7CAD8DAD9EAD20E030E026
:103D90004AE754E40E941903DC01CB018AAB9BABD8
:103DA000ACABBDAB6AA97BA98CA99DA920E030E092
:103DB0004AEF54E40E941F02DC01CB018EA79FA7AB
:103DC000A8ABB9AB6EA57FA588A999A920E030E082
:103DD00040E85FE30E94250488232CF481E090E012
:103DE0009DA78CA73FC06EA57FA588A999A920E0B3
:103DF0003FEF4FE757E40E94C50318164CF56AA938
:103E00007BA98CA99DA920E030E040E251E40E940A
:103E10001F02DC01CB01BC01CD010E944900DC0185
:103E2000CB019DA78CA70FC088EC90E09BA78AA729
:103E30008AA59BA50197F1F79BA78AA78CA59DA5AD
:103E400001979DA78CA78CA59DA5009769F724C015
:103E50006EA57FA588A999A90E944900DC01CB0124
:103E60009DA78CA78CA59DA599A788A788A599A58E
:103E70000197F1F799A788A70FC06FA978AD89AD11
:103E80009AAD0E944900DC01CB018EAB8EA98FA3B5
:103E90008FA18A95F1F78FA38CE00E94D01180E06A
:103EA00090E0A8E4B2E48BA39CA3ADA3BEA36BA156
:103EB0007CA18DA19EA12BEA3AEA4AE250E40E943D
:103EC0001F02DC01CB018F8F98A3A9A3BAA36F8D2A
:103ED00078A189A19AA120E030E040E85FE30E9448
:103EE000250488231CF481E08E8F91C06F8D78A10A
:103EF00089A19AA120E030E04FE753E40E94C50376
:103F000018160CF07BC06BA17CA18DA19EA120E0B6
:103F100030E04AE754E40E941903DC01CB018A8FA8
:103F20009B8FAC8FBD8F6A8D7B8D8C8D9D8D20E09E
:103F300030E04AEF54E40E941F02DC01CB018E8B7B
:103F40009F8BA88FB98F6E897F89888D998D20E08E
:103F500030E040E85FE30E94250488232CF481E0F0
:103F600090E09D8B8C8B3FC06E897F89888D998D69
:103F700020E03FEF4FE757E40E94C50318164CF5C9
:103F80006A8D7B8D8C8D9D8D20E030E040E251E488
:103F90000E941F02DC01CB01BC01CD010E9449003F
:103FA000DC01CB019D8B8C8B0FC088EC90E09B8B50
:103FB0008A8B8A899B890197F1F79B8B8A8B8C89E5
:103FC0009D8901979D8B8C8B8C899D89009769F7C2
:103FD00024C06E897F89888D998D0E944900DC01FB
:103FE000CB019D8B8C8B8C899D89998B888B888943
:103FF00099890197F1F7998B888B0FC06F8D78A104
:1040000089A19AA10E944900DC01CB018E8F8E8D7F
:104010008F878F858A95F1F78F8781E00E94D01175
:1040200080E090E0A0E0B0E48B879C87AD87BE87FE
:104030006B857C858D859E8520E030E04AEF54E4D9
:104040000E941F02DC01CB018F839887A987BA8762
:104050006F81788589859A8520E030E040E85FE3CC
:104060000E94250488232CF481E090E09E838D83B8
:104070003FC06F81788589859A8520E03FEF4FE7C3
:1040800057E40E94C50318164CF56B857C858D8519
:104090009E8520E030E040E251E40E941F02DC01F6
:1040A000CB01BC01CD010E944900DC01CB019E8304
:1040B0008D830FC088EC90E09C838B838B819C81E7
:1040C0000197F1F79C838B838D819E8101979E835D
:1040D0008D838D819E81009769F714C06F817885EB
:1040E00089859A850E944900DC01CB019E838D83DE
:1040F0008D819E819A83898389819A810197F1F7C5
:104100009A838983C45BDF4F0FB6F894DEBF0FBE7E
:10411000CDBFCF91DF911F910F910895DF93CF9382
:10412000CDB7DEB76B970FB6F894DEBF0FBECDBF2D
:104130008A8F6B8F8A8D882F90E002960024969547
:1041400087950794969587950794982F802D982F9B
:104150008B8D890F898F898D0E94D01180E090E02E
:10416000A8E4B2E48D8B9E8BAF8BB88F6D897E896E
:104170008F89988D2BEA3AEA4AE250E40E941F02A6
:10418000DC01CB01898B9A8BAB8BBC8B69897A89DB
:104190008B899C8920E030E040E85FE30E942504A1
:1041A00088231CF481E0888B91C069897A898B8986
:1041B0009C8920E030E04FE753E40E94C5031816C5
:1041C0000CF07BC06D897E898F89988D20E030E06E
:1041D0004AE754E40E941903DC01CB018C879D87D8
:1041E000AE87BF876C857D858E859F8520E030E01A
:1041F0004AEF54E40E941F02DC01CB0188879987B3
:10420000AA87BB87688579858A859B8520E030E011
:1042100040E85FE30E94250488232CF481E090E0CD
:104220009F838E833FC0688579858A859B8520E042
:104230003FEF4FE757E40E94C50318164CF56C8515
:104240007D858E859F8520E030E040E251E40E942C
:104250001F02DC01CB01BC01CD010E944900DC0141
:10426000CB019F838E830FC088EC90E09D838C836D
:104270008C819D810197F1F79D838C838E819F8135
:1042800001979F838E838E819F81009769F724C059
:10429000688579858A859B850E944900DC01CB0170
:1042A0009F838E838E819F819B838A838A819B815A
:1042B0000197F1F79B838A830FC069897A898B897B
:1042C0009C890E944900DC01CB01888B8889898305
:1042D00089818A95F1F789836B960FB6F894DEBFD2
:1042E0000FBECDBFCF91DF910895DF93CF93CDB7B0
:1042F000DEB768970FB6F894DEBF0FBECDBF8CE077
:104300000E94D01180E090E0A8E4B2E48D8B9E8BF7
:10431000AF8BB88F6D897E898F89988D2BEA3AEAA9
:104320004AE250E40E941F02DC01CB01898B9A8B88
:10433000AB8BBC8B69897A898B899C8920E030E0C2
:1043400040E85FE30E94250488231CF481E0888B09
:1043500091C069897A898B899C8920E030E04FE798
:1043600053E40E94C50318160CF07BC06D897E894A
:104370008F89988D20E030E04AE754E40E941903C9
:10438000DC01CB018C879D87AE87BF876C857D85DF
:104390008E859F8520E030E04AEF54E40E941F02A2
:1043A000DC01CB0188879987AA87BB8768857985D7
:1043B0008A859B8520E030E040E85FE30E94250489
:1043C00088232CF481E090E09F838E833FC0688532
:1043D00079858A859B8520E03FEF4FE757E40E946F
:1043E000C50318164CF56C857D858E859F8520E06C
:1043F00030E040E251E40E941F02DC01CB01BC012D
:10440000CD010E944900DC01CB019F838E830FC048
:1044100088EC90E09D838C838C819D810197F1F7DE
:104420009D838C838E819F8101979F838E838E8154
:104430009F81009769F724C0688579858A859B8567
:104440000E944900DC01CB019F838E838E819F8176
:104450009B838A838A819B810197F1F79B838A835F
:104460000FC069897A898B899C890E944900DC0187
:10447000CB01888B8889898389818A95F1F7898323
:1044800068960FB6F894DEBF0FBECDBFCF91DF9117
:104490000895DF93CF93CDB7DEB768970FB6F89442
:1044A000DEBF0FBECDBF88E00E94D01180E090E05B
:1044B000A8E4B2E48D8B9E8BAF8BB88F6D897E891B
:1044C0008F89988D2BEA3AEA4AE250E40E941F0253
:1044D000DC01CB01898B9A8BAB8BBC8B69897A8988
:1044E0008B899C8920E030E040E85FE30E9425044E
:1044F00088231CF481E0888B91C069897A898B8933
:104500009C8920E030E04FE753E40E94C503181671
:104510000CF07BC06D897E898F89988D20E030E01A
:104520004AE754E40E941903DC01CB018C879D8784
:10453000AE87BF876C857D858E859F8520E030E0C6
:104540004AEF54E40E941F02DC01CB01888799875F
:10455000AA87BB87688579858A859B8520E030E0BE
:1045600040E85FE30E94250488232CF481E090E07A
:104570009F838E833FC0688579858A859B8520E0EF
:104580003FEF4FE757E40E94C50318164CF56C85C2
:104590007D858E859F8520E030E040E251E40E94D9
:1045A0001F02DC01CB01BC01CD010E944900DC01EE
:1045B000CB019F838E830FC088EC90E09D838C831A
:1045C0008C819D810197F1F79D838C838E819F81E2
:1045D00001979F838E838E819F81009769F724C006
:1045E000688579858A859B850E944900DC01CB011D
:1045F0009F838E838E819F819B838A838A819B8107
:104600000197F1F79B838A830FC069897A898B8927
:104610009C890E944900DC01CB01888B88898983B1
:1046200089818A95F1F7898368960FB6F894DEBF81
:104630000FBECDBFCF91DF910895DF93CF93CDB75C
:10464000DEB76C970FB6F894DEBF0FBECDBF81E02A
:104650000E94D01180E090E0A0E0B0E4898F9A8FB2
:10466000AB8FBC8F698D7A8D8B8D9C8D20E030E077
:104670004AEF54E40E941F02DC01CB018D8B9E8B1C
:10468000AF8BB88F6D897E898F89988D20E030E05F
:1046900040E85FE30E94250488232CF481E090E049
:1046A0009C8B8B8B3FC06D897E898F89988D20E094
:1046B0003FEF4FE757E40E94C50318164CF5698D8C
:1046C0007A8D8B8D9C8D20E030E040E251E40E9499
:1046D0001F02DC01CB01BC01CD010E944900DC01BD
:1046E000CB019C8B8B8B0FC088EC90E09A8B898BD5
:1046F00089899A890197F1F79A8B898B8B899C8993
:1047000001979C8B8B8B8B899C89009769F714C0D0
:104710006D897E898F89988D0E944900DC01CB01CB
:104720009C8B8B8B8B899C89988B8F878F859889A5
:104730000197F1F7988B8F8782E00E94D01180E07B
:1047400090E0A0E0B0E48B879C87AD87BE876B8547
:104750007C858D859E8520E030E04AEF54E40E9400
:104760001F02DC01CB018F839887A987BA876F81ED
:10477000788589859A8520E030E040E85FE30E94F3
:10478000250488232CF481E090E09E838D833FC034
:104790006F81788589859A8520E03FEF4FE757E460
:1047A0000E94C50318164CF56B857C858D859E850A
:1047B00020E030E040E251E40E941F02DC01CB0126
:1047C000BC01CD010E944900DC01CB019E838D8399
:1047D0000FC088EC90E09C838B838B819C81019738
:1047E000F1F79C838B838D819E8101979E838D83BE
:1047F0008D819E81009769F714C06F8178858985C6
:104800009A850E944900DC01CB019E838D838D81B6
:104810009E819A83898389819A810197F1F79A838E
:1048200089836C960FB6F894DEBF0FBECDBFCF91D3
:10483000DF910895DF93CF93CDB7DEB769970FB6B9
:10484000F894DEBF0FBECDBF898F898D0E94B40D55
:1048500080E090E0A8E4B2E48D8B9E8BAF8BB88FA4
:104860006D897E898F89988D2BEA3AEA4AE250E475
:104870000E941F02DC01CB01898B9A8BAB8BBC8B16
:1048800069897A898B899C8920E030E040E85FE380
:104890000E94250488231CF481E0888B91C06989DB
:1048A0007A898B899C8920E030E04FE753E40E94AD
:1048B000C50318160CF07BC06D897E898F89988D91
:1048C00020E030E04AE754E40E941903DC01CB0108
:1048D0008C879D87AE87BF876C857D858E859F85FC
:1048E00020E030E04AEF54E40E941F02DC01CB01DB
:1048F00088879987AA87BB87688579858A859B85FC
:1049000020E030E040E85FE30E94250488232CF497
:1049100081E090E09F838E833FC0688579858A859A
:104920009B8520E03FEF4FE757E40E94C503181630
:104930004CF56C857D858E859F8520E030E040E2DA
:1049400051E40E941F02DC01CB01BC01CD010E9499
:104950004900DC01CB019F838E830FC088EC90E07F
:104960009D838C838C819D810197F1F79D838C833E
:104970008E819F8101979F838E838E819F81009777
:1049800069F724C0688579858A859B850E944900DE
:10499000DC01CB019F838E838E819F819B838A83E1
:1049A0008A819B810197F1F79B838A830FC0698974
:1049B0007A898B899C890E944900DC01CB01888B14
:1049C0008889898389818A95F1F7898369960FB6E9
:1049D000F894DEBF0FBECDBFCF91DF910895DF9376
:1049E000CF9300D00F92CDB7DEB79B838A83198215
:1049F0000EC08981282F30E08A819B81FC01E20F63
:104A0000F31F80810E941A2489818F5F89838981A5
:104A1000282F30E08A819B81FC01E20FF31F808107
:104A2000882339F70F900F900F90CF91DF91089561
:104A30000F931F93DF93CF93CDB7DEB760970FB679
:104A4000F894DEBF0FBECDBF6D877E878F87988BB2
:104A50008D859E85AF85B8890097A105B10521F4A4
:104A600080E30E941A2418C08D859E85AF85B88981
:104A7000BB2394F48DE20E941A248D859E85AF8518
:104A8000B889B095A095909581959F4FAF4FBF4F36
:104A90008D879E87AF87B88B8D859E85AF85B889BA
:104AA000181619061A061B060CF051C01A822DC0E2
:104AB0008A81082F10E08D859E85AF85B8892AE010
:104AC00030E040E050E0BC01CD010E94112CDC013F
:104AD000CB01282FCE010396FC01E00FF11F2083AC
:104AE0008D859E85AF85B8892AE030E040E050E0B2
:104AF000BC01CD010E94112CDA01C9018D879E876E
:104B0000AF87B88B8A818F5F8A838D859E85AF85BD
:104B1000B8890097A105B10559F6CE0103966A81BF
:104B20000E94F10919820FC08981282F30E0CE013F
:104B30000396FC01E20FF31F8081805D0E941A241E
:104B400089818F5F898399818A81981768F360963C
:104B50000FB6F894DEBF0FBECDBFCF91DF911F918E
:104B60000F910895EF92FF920F931F93DF93CF93CE
:104B7000CDB7DEB72D970FB6F894DEBF0FBECDBF11
:104B800069877A878B879C874D8769857A858B852E
:104B90009C850E94B304DC01CB018D839E83AF838F
:104BA000B8876D817E818F8198850E9455049B0115
:104BB000AC0169857A858B859C850E94C101DC01E9
:104BC000CB017C018D018D850E94390ADC01CB016E
:104BD000BC01CD010E9455049B01AC01C801B70185
:104BE0000E941F02DC01CB01BC01CD010E94B30475
:104BF000DC01CB0189839A83AB83BC838D819E8149
:104C0000AF81B885BC01CD010E9418258EE20E94BB
:104C10001A2489819A81AB81BC81181619061A065B
:104C20001B064CF489819A81AB81BC81BC01CD010A
:104C30000E9418250FC089819A81AB81BC81B095F3
:104C4000A095909581959F4FAF4FBF4FBC01CD016F
:104C50000E9418252D960FB6F894DEBF0FBECDBF6B
:104C6000CF91DF911F910F91FF90EF900895DF9307
:104C7000CF9300D00F92CDB7DEB789837B836A8351
:104C80008981883060F48981882F90E0880F991F8E
:104C9000FC01EF56FE4F8A819B81918380830F90A8
:104CA0000F900F90CF91DF910895DF93CF93CDB701
:104CB000DEB7A3E5B0E0E3E5F0E0808182608C93AD
:104CC000A3E5B0E0E3E5F0E080818E7F8C93A3E57F
:104CD000B0E0E3E5F0E080818B7F8C93CF91DF91B2
:104CE0000895DF93CF93CDB7DEB7A3E5B0E0E3E55A
:104CF000F0E080818F7E8C93A3E5B0E0E3E5F0E007
:104D000080818F7D8C93CF91DF910895DF93CF9336
:104D1000CDB7DEB7A3E5B0E0E3E5F0E08081877FC3
:104D20008C93A3E5B0E0E3E5F0E080818F7B8C938A
:104D3000CF91DF910895DF93CF93CDB7DEB7A3E591
:104D4000B0E0E3E5F0E080818B7F8C93A3E5B0E0F9
:104D5000E3E5F0E080818D7F8C93A3E5B0E0E3E5AF
:104D6000F0E080818E7F8C93CF91DF910895DF9367
:104D7000CF930F92CDB7DEB78983E2E5F0E089816A
:104D800080830F90CF91DF910895DF93CF930F929F
:104D9000CDB7DEB78983ECE5F0E0898180830F90A1
:104DA000CF91DF910895DF93CF93CDB7DEB70E9407
:104DB00086260E9471260E945526A9E5B0E0E9E505
:104DC000F0E0808181608C93AFE5B0E0EFE5F0E04A
:104DD000808180688C93CF91DF9108951F920F920C
:104DE0000FB60F9211242F933F934F935F936F93BE
:104DF0007F938F939F93AF93BF93EF93FF93DF9333
:104E0000CF93CDB7DEB78091910190919201009739
:104E100029F0E0919101F09192010995CF91DF91F4
:104E2000FF91EF91BF91AF919F918F917F916F9182
:104E30005F914F913F912F910F900FBE0F901F9058
:104E400018951F920F920FB60F9211242F933F9334
:104E50004F935F936F937F938F939F93AF93BF9382
:104E6000EF93FF93DF93CF93CDB7DEB7809193019C
:104E700090919401009729F0E0919301F0919401B1
:104E80000995CF91DF91FF91EF91BF91AF919F91E4
:104E90008F917F916F915F914F913F912F910F90E3
:104EA0000FBE0F901F901895DF93CF93CDB7DEB74D
:104EB000AFE4B0E0EFE4F0E080818E7F8C93AFE46C
:104EC000B0E0EFE4F0E080818D7F8C93AFE4B0E060
:104ED000EFE4F0E08081877F8C93AFE4B0E0EFE413
:104EE000F0E080818F7E8C93CF91DF910895DF93E6
:104EF000CF93CDB7DEB7CF91DF910895DF93CF93F6
:104F0000CDB7DEB7AEE4B0E0EEE4F0E080818260E1
:104F10008C93AEE4B0E0EEE4F0E080818E7F8C9381
:104F2000AEE4B0E0EEE4F0E080818B7F8C93CF9133
:104F3000DF910895DF93CF9300D0CDB7DEB79A838A
:104F40008983ECE4F0E089819A81918380830F90DA
:104F50000F90CF91DF910895DF93CF9300D0CDB71D
:104F6000DEB79A838983EAE4F0E089819A819183AC
:104F700080830F900F90CF91DF910895DF93CF93AF
:104F800000D0CDB7DEB79A838983E8E4F0E0898169
:104F90009A81918380830F900F90CF91DF91089534
:104FA000DF93CF93CDB7DEB7AEE4B0E0EEE4F0E050
:104FB00080818E7F8C93AEE4B0E0EEE4F0E08081FF
:104FC0008D7F8C93AEE4B0E0EEE4F0E080818B7FE7
:104FD0008C93CF91DF910895DF93CF93CDB7DEB758
:104FE0000E9454270E9477270E947E27E6E4F0E083
:104FF00011821082A9E5B0E0E9E5F0E080818062ED
:105000008C93AFE5B0E0EFE5F0E0808180688C93B1
:10501000CF91DF910895DF93CF9300D00F92CDB75A
:10502000DEB7898380919001882341F483E066E0B4
:1050300040E00E948E0781E0809390018981282FB3
:1050400030E03B832A838A819B810097A1F02A81EB
:105050003B8121303105E9F4AEE4B0E0EEE4F0E06C
:1050600080818F7B8C93AEE4B0E0EEE4F0E0808151
:1050700080688C930EC0AEE4B0E0EEE4F0E0808196
:1050800080648C93AEE4B0E0EEE4F0E08081806870
:105090008C930F900F900F90CF91DF910895DF9335
:1050A000CF93CDB7DEB7ECE4F0E011821082CF9160
:1050B000DF910895DF93CF93CDB7DEB7A9E5B0E0D8
:1050C000E9E5F0E080818F7D8C93CF91DF910895A9
:1050D000DF93CF93CDB7DEB7E6E4F0E08081918136
:1050E000CF91DF910895DF93CF9300D0CDB7DEB796
:1050F0009A838983ECE4F0E089819A8191838083AB
:105100000F900F90CF91DF9108951F920F920FB6DD
:105110000F9211242F933F934F935F936F937F933D
:105120008F939F93AF93BF93EF93FF93DF93CF93AF
:10513000CDB7DEB780919B0190919C01009729F03B
:10514000E0919B01F0919C010995CF91DF91FF9136
:10515000EF91BF91AF919F918F917F916F915F91EF
:105160004F913F912F910F900FBE0F901F90189568
:105170001F920F920FB60F9211242F933F934F93CC
:105180005F936F937F938F939F93AF93BF93EF93AF
:10519000FF93DF93CF93CDB7DEB7809197019091C6
:1051A0009801009729F0E0919701F09198010995F5
:1051B000CF91DF91FF91EF91BF91AF919F918F912F
:1051C0007F916F915F914F913F912F910F900FBE03
:1051D0000F901F9018951F920F920FB60F921124E7
:1051E0002F933F934F935F936F937F938F939F93EF
:1051F000AF93BF93EF93FF93DF93CF93CDB7DEB71A
:105200008091990190919A01009729F0E09199017C
:10521000F0919A010995CF91DF91FF91EF91BF91A4
:10522000AF919F918F917F916F915F914F913F913E
:105230002F910F900FBE0F901F9018951F920F92F5
:105240000FB60F9211242F933F934F935F936F9359
:105250007F938F939F93AF93BF93EF93FF93DF93CE
:10526000CF93CDB7DEB780919501909196010097CD
:1052700029F0E0919501F09196010995CF91DF9188
:10528000FF91EF91BF91AF919F918F917F916F911E
:105290005F914F913F912F910F900FBE0F901F90F4
:1052A0001895DF93CF93CDB7DEB7A5E4B0E0E5E482
:1052B000F0E0808182608C93A5E4B0E0E5E4F0E06A
:1052C00080818E7F8C93A5E4B0E0E5E4F0E08081FE
:1052D0008B7F8C93CF91DF910895DF93CF93CDB7E0
:1052E000DEB7A5E4B0E0E5E4F0E080818F7E8C934A
:1052F000A5E4B0E0E5E4F0E080818F7D8C93CF9170
:10530000DF910895DF93CF93CDB7DEB7A5E4B0E08A
:10531000E5E4F0E080818F7B8C93A5E4B0E0E5E4E8
:10532000F0E08081877F8C93CF91DF910895DF93A8
:10533000CF93CDB7DEB7A5E4B0E0E5E4F0E080813F
:105340008E7F8C93A5E4B0E0E5E4F0E080818D7F72
:105350008C93A5E4B0E0E5E4F0E080818B7F8C9352
:10536000CF91DF910895DF93CF930F92CDB7DEB742
:105370008983E4E4F0E0898180830F90CF91DF910D
:105380000895DF93CF930F92CDB7DEB78983E3E41F
:10539000F0E0898180830F90CF91DF910895DF93B2
:1053A000CF93CDB7DEB70E9482290E946D290E945B
:1053B0005129A9E5B0E0E9E5F0E0808180648C93B3
:1053C000AFE5B0E0EFE5F0E0808180688C93CF91AD
:1053D000DF9108951F920F920FB60F9211242F9311
:1053E0003F934F935F936F937F938F939F93AF936D
:1053F000BF93EF93FF93DF93CF93CDB7DEB7809149
:105400009D0190919E01009729F0E0919D01F091FE
:105410009E010995CF91DF91FF91EF91BF91AF91DF
:105420009F918F917F916F915F914F913F912F91BC
:105430000F900FBE0F901F9018951F920F920FB6EE
:105440000F9211242F933F934F935F936F937F930A
:105450008F939F93AF93BF93EF93FF93DF93CF937C
:10546000CDB7DEB780919F019091A001009729F000
:10547000E0919F01F091A0010995CF91DF91FF91FB
:10548000EF91BF91AF919F918F917F916F915F91BC
:105490004F913F912F910F900FBE0F901F90189535
:1054A000DF93CF930F92CDB7DEB78983A1E4B0E04D
:1054B000E1E4F0E0808188608C93AFE5B0E0EFE557
:1054C000F0E0808180688C93A1E4B0E0E1E4F0E05A
:1054D0008081887F8C93A1E4B0E0E1E4F0E08081FA
:1054E000982F89818770892B8C930F90CF91DF91B2
:1054F0000895DF93CF93CDB7DEB7E1E4F0E088E124
:105500008083E1E4F0E01082CF91DF910895DF9392
:10551000CF93CDB7DEB70E94EC2780E00E940B2826
:105520002DE93BE285E0B9010E94372682E065E083
:1055300041E00E948E07CF91DF910895DF93CF93D2
:10554000CDB7DEB768970FB6F894DEBF0FBECDBFFC
:1055500082E065E00E94C90880E090E0A0E2B1E44A
:105560008D8B9E8BAF8BB88F6D897E898F89988D3F
:105570002BEA3AEA4AE250E40E941F02DC01CB0126
:10558000898B9A8BAB8BBC8B69897A898B899C8937
:1055900020E030E040E85FE30E94250488231CF40B
:1055A00081E0888B91C069897A898B899C8920E008
:1055B00030E04FE753E40E94C50318160CF07BC09F
:1055C0006D897E898F89988D20E030E04AE754E428
:1055D0000E941903DC01CB018C879D87AE87BF87B2
:1055E0006C857D858E859F8520E030E04AEF54E410
:1055F0000E941F02DC01CB0188879987AA87BB879D
:10560000688579858A859B8520E030E040E85FE306
:105610000E94250488232CF481E090E09F838E83F0
:105620003FC0688579858A859B8520E03FEF4FE7FD
:1056300057E40E94C50318164CF56C857D858E8550
:105640009F8520E030E040E251E40E941F02DC012F
:10565000CB01BC01CD010E944900DC01CB019F833D
:105660008E830FC088EC90E09D838C838C819D811C
:105670000197F1F79D838C838E819F8101979F8392
:105680008E838E819F81009769F724C06885798514
:105690008A859B850E944900DC01CB019F838E8314
:1056A0008E819F819B838A838A819B810197F1F7F9
:1056B0009B838A830FC069897A898B899C890E9420
:1056C0004900DC01CB01888B8889898389818A958F
:1056D000F1F7898382E065E00E94F90868960FB6C9
:1056E000F894DEBF0FBECDBFCF91DF910895DF9359
:1056F000CF93CDB7DEB70E949E2A8091A2019091F0
:10570000A301CC01A0E0B0E0BC01CD010E940705DF
:10571000DC01CB01BC01CD012BEB38EB4DE85CE3A8
:105720000E941F02DC01CB01BC01CD010E94490097
:10573000DC01CB01CF91DF910895DF93CF93CDB7FB
:10574000DEB78091A1018F5F8093A1018091A101BB
:10575000813031F40E944F2881E00E940B2811C053
:105760008091A101823069F40E9468289093A3017E
:105770008093A20180E00E940B280E944F28109283
:10578000A101CF91DF910895DF93CF9300D0CDB7E2
:10579000DEB71A8219820E94AC1D0E94872A80E619
:1057A00090E00E94EF240E94772B9A83898380E007
:1057B0006AE00E948E2089819A81CC01A0E0B0E04D
:1057C000BC01CD010E94182589819A8184369105FA
:1057D00028F089819A818A30910528F780E20E9419
:1057E0001A24E1CF629FD001739FF001829FE00DE8
:1057F000F11D649FE00DF11D929FF00D839FF00D50
:10580000749FF00D659FF00D9927729FB00DE11DFB
:10581000F91F639FB00DE11DF91FBD01CF011124D8
:10582000089597FB092E05260ED057FD04D014D0FD
:105830000AD0001C38F450954095309521953F4F83
:105840004F4F5F4F0895F6F790958095709561954D
:105850007F4F8F4F9F4F0895A1E21A2EAA1BBB1BAB
:10586000FD010DC0AA1FBB1FEE1FFF1FA217B3072C
:10587000E407F50720F0A21BB30BE40BF50B661F42
:10588000771F881F991F1A9469F760957095809506
:1058900090959B01AC01BD01CF0108952F923F92DD
:1058A0004F925F926F927F928F929F92AF92BF9230
:1058B000CF92DF92EF92FF920F931F93CF93DF93DC
:1058C000CDB7DEB7CA1BDB0B0FB6F894DEBF0FBE39
:1058D000CDBF09942A88398848885F846E847D8486
:1058E0008C849B84AA84B984C884DF80EE80FD8088
:1058F0000C811B81AA81B981CE0FD11D0FB6F894FE
:0E590000DEBF0FBECDBFED010895F894FFCFBE
:10590E0044697374616E6365203D202020636D00D1
:10591E000000000000000000000102020303030368
:10592E000404040404040404050505050505050521
:10593E000505050505050505060606060606060601
:10594E0006060606060606060606060606060606E9
:10595E0006060606060606060707070707070707D1
:10596E0007070707070707070707070707070707B9
:10597E0007070707070707070707070707070707A9
:10598E000707070707070707070707070707070799
:10599E000707070707070707080808080808080881
:1059AE000808080808080808080808080808080869
:1059BE000808080808080808080808080808080859
:1059CE000808080808080808080808080808080849
:1059DE000808080808080808080808080808080839
:1059EE000808080808080808080808080808080829
:1059FE000808080808080808080808080808080819
:105A0E000808080808080808080808080808080808
:105A1E000808080808080808390036003300300066
:105A2E003A003700340031003B00380035003200B8
:00000001FF
